{
  "_format": "hh-sol-artifact-1",
  "contractName": "Library",
  "sourceName": "contracts/Library.sol",
  "abi": [
    {
      "anonymous": false,
      "inputs": [
        {
          "indexed": true,
          "internalType": "uint256",
          "name": "id",
          "type": "uint256"
        },
        {
          "indexed": false,
          "internalType": "address",
          "name": "borrower",
          "type": "address"
        }
      ],
      "name": "BookBorrowed",
      "type": "event"
    },
    {
      "anonymous": false,
      "inputs": [
        {
          "indexed": true,
          "internalType": "uint256",
          "name": "id",
          "type": "uint256"
        }
      ],
      "name": "BookRemoved",
      "type": "event"
    },
    {
      "anonymous": false,
      "inputs": [
        {
          "indexed": false,
          "internalType": "uint256",
          "name": "id",
          "type": "uint256"
        },
        {
          "indexed": false,
          "internalType": "address",
          "name": "borrower",
          "type": "address"
        }
      ],
      "name": "BookReturned",
      "type": "event"
    },
    {
      "anonymous": false,
      "inputs": [
        {
          "indexed": false,
          "internalType": "uint256",
          "name": "id",
          "type": "uint256"
        },
        {
          "indexed": false,
          "internalType": "string",
          "name": "title",
          "type": "string"
        }
      ],
      "name": "NewBookAdded",
      "type": "event"
    },
    {
      "anonymous": false,
      "inputs": [
        {
          "indexed": false,
          "internalType": "uint256",
          "name": "id",
          "type": "uint256"
        },
        {
          "indexed": false,
          "internalType": "uint256",
          "name": "copies",
          "type": "uint256"
        }
      ],
      "name": "NewCopiesAdded",
      "type": "event"
    },
    {
      "inputs": [
        {
          "internalType": "string",
          "name": "_title",
          "type": "string"
        },
        {
          "internalType": "uint256",
          "name": "_copies",
          "type": "uint256"
        }
      ],
      "name": "addBook",
      "outputs": [],
      "stateMutability": "nonpayable",
      "type": "function"
    },
    {
      "inputs": [
        {
          "internalType": "uint256",
          "name": "_id",
          "type": "uint256"
        }
      ],
      "name": "borrowBook",
      "outputs": [],
      "stateMutability": "nonpayable",
      "type": "function"
    },
    {
      "inputs": [],
      "name": "getAvailableBooks",
      "outputs": [
        {
          "components": [
            {
              "internalType": "uint256",
              "name": "id",
              "type": "uint256"
            },
            {
              "internalType": "string",
              "name": "title",
              "type": "string"
            }
          ],
          "internalType": "struct Library.AvailableBook[]",
          "name": "",
          "type": "tuple[]"
        }
      ],
      "stateMutability": "view",
      "type": "function"
    },
    {
      "inputs": [
        {
          "internalType": "uint256",
          "name": "_id",
          "type": "uint256"
        }
      ],
      "name": "getBookDetails",
      "outputs": [
        {
          "internalType": "string",
          "name": "",
          "type": "string"
        },
        {
          "internalType": "uint256",
          "name": "",
          "type": "uint256"
        },
        {
          "internalType": "address[]",
          "name": "",
          "type": "address[]"
        }
      ],
      "stateMutability": "view",
      "type": "function"
    },
    {
      "inputs": [],
      "name": "getBorrowedBooks",
      "outputs": [
        {
          "components": [
            {
              "internalType": "uint256",
              "name": "id",
              "type": "uint256"
            },
            {
              "internalType": "string",
              "name": "title",
              "type": "string"
            }
          ],
          "internalType": "struct Library.AvailableBook[]",
          "name": "",
          "type": "tuple[]"
        }
      ],
      "stateMutability": "view",
      "type": "function"
    },
    {
      "inputs": [],
      "name": "owner",
      "outputs": [
        {
          "internalType": "address",
          "name": "",
          "type": "address"
        }
      ],
      "stateMutability": "view",
      "type": "function"
    },
    {
      "inputs": [
        {
          "internalType": "uint256",
          "name": "_id",
          "type": "uint256"
        }
      ],
      "name": "returnBook",
      "outputs": [],
      "stateMutability": "nonpayable",
      "type": "function"
    }
  ],
  "bytecode": "0x608060405234801561001057600080fd5b50336000806101000a81548173ffffffffffffffffffffffffffffffffffffffff021916908373ffffffffffffffffffffffffffffffffffffffff16021790555061203e806100606000396000f3fe608060405234801561001057600080fd5b506004361061007d5760003560e01c80638ccca18a1161005b5780638ccca18a146100ec5780638da5cb5b1461010a578063ca5140c914610128578063d6c084d9146101445761007d565b8063637a38721461008257806374ff48181461009e5780637e490a9e146100d0575b600080fd5b61009c6004803603810190610097919061120f565b610162565b005b6100b860048036038101906100b3919061126f565b610454565b6040516100c79392919061142b565b60405180910390f35b6100ea60048036038101906100e5919061126f565b610688565b005b6100f46108d1565b60405161010191906115c8565b60405180910390f35b610112610a9c565b60405161011f91906115f9565b60405180910390f35b610142600480360381019061013d919061126f565b610ac0565b005b61014c610cf9565b60405161015991906115c8565b60405180910390f35b3373ffffffffffffffffffffffffffffffffffffffff1660008054906101000a900473ffffffffffffffffffffffffffffffffffffffff1673ffffffffffffffffffffffffffffffffffffffff16146101f0576040517f08c379a00000000000000000000000000000000000000000000000000000000081526004016101e790611686565b60405180910390fd5b60008111610233576040517f08c379a000000000000000000000000000000000000000000000000000000000815260040161022a90611718565b60405180910390fd5b60005b600180549050811015610368578383604051602001610256929190611777565b60405160208183030381529060405280519060200120600182815481106102805761027f611790565b5b90600052602060002090600302016000016040516020016102a191906118b7565b60405160208183030381529060405280519060200120036103555781600182815481106102d1576102d0611790565b5b9060005260206000209060030201600101546102ed91906118fd565b6001828154811061030157610300611790565b5b9060005260206000209060030201600101819055507f4e7fbcc359970a72cdad1ece1300b8b8d9a1a63b3e0fcce89c4db27bcb4c2cf88183604051610347929190611931565b60405180910390a15061044f565b80806103609061195a565b915050610236565b5060018081600181540180825580915050039060005260206000209050508282600180808054905061039a91906119a2565b815481106103ab576103aa611790565b5b906000526020600020906003020160000191826103c9929190611ba7565b508060018080805490506103dd91906119a2565b815481106103ee576103ed611790565b5b9060005260206000209060030201600101819055507f86b447e76b491834cb69eb2a23fccb480f36549da34f97ed20dd3c9a124425d66001808054905061043591906119a2565b848460405161044693929190611ca4565b60405180910390a15b505050565b606060006060836000600180549050116104a3576040517f08c379a000000000000000000000000000000000000000000000000000000000815260040161049a90611d48565b60405180910390fd5b600180805490506104b491906119a2565b8111156104f6576040517f08c379a00000000000000000000000000000000000000000000000000000000081526004016104ed90611dda565b60405180910390fd5b6001858154811061050a57610509611790565b5b90600052602060002090600302016000016001868154811061052f5761052e611790565b5b9060005260206000209060030201600101546001878154811061055557610554611790565b5b9060005260206000209060030201600201828054610572906117ee565b80601f016020809104026020016040519081016040528092919081815260200182805461059e906117ee565b80156105eb5780601f106105c0576101008083540402835291602001916105eb565b820191906000526020600020905b8154815290600101906020018083116105ce57829003601f168201915b505050505092508080548060200260200160405190810160405280929190818152602001828054801561067357602002820191906000526020600020905b8160009054906101000a900473ffffffffffffffffffffffffffffffffffffffff1673ffffffffffffffffffffffffffffffffffffffff1681526020019060010190808311610629575b50505050509050935093509350509193909250565b806000600180549050116106d1576040517f08c379a00000000000000000000000000000000000000000000000000000000081526004016106c890611d48565b60405180910390fd5b600180805490506106e291906119a2565b811115610724576040517f08c379a000000000000000000000000000000000000000000000000000000000815260040161071b90611dda565b60405180910390fd5b600015156107328333610f68565b151514610774576040517f08c379a000000000000000000000000000000000000000000000000000000000815260040161076b90611e6c565b60405180910390fd5b60006001838154811061078a57610789611790565b5b906000526020600020906003020160020180549050600184815481106107b3576107b2611790565b5b9060005260206000209060030201600101546107cf91906119a2565b1161080f576040517f08c379a000000000000000000000000000000000000000000000000000000000815260040161080690611efe565b60405180910390fd5b6001828154811061082357610822611790565b5b9060005260206000209060030201600201339080600181540180825580915050600190039060005260206000200160009091909190916101000a81548173ffffffffffffffffffffffffffffffffffffffff021916908373ffffffffffffffffffffffffffffffffffffffff160217905550817f7534124779d4d1eaf9cabba5f94b2b281856aba81c295cde4c9e69483b04b8cc336040516108c591906115f9565b60405180910390a25050565b60606000805b600180549050811015610915576108ee8133610f68565b156109025781806108fe9061195a565b9250505b808061090d9061195a565b9150506108d7565b5060008167ffffffffffffffff811115610932576109316119e1565b5b60405190808252806020026020018201604052801561096b57816020015b610958611150565b8152602001906001900390816109505790505b5090506000915060005b600180549050811015610a935761098c8133610f68565b15610a80576040518060400160405280828152602001600183815481106109b6576109b5611790565b5b906000526020600020906003020160000180546109d2906117ee565b80601f01602080910402602001604051908101604052809291908181526020018280546109fe906117ee565b8015610a4b5780601f10610a2057610100808354040283529160200191610a4b565b820191906000526020600020905b815481529060010190602001808311610a2e57829003601f168201915b5050505050815250828481518110610a6657610a65611790565b5b60200260200101819052508280610a7c9061195a565b9350505b8080610a8b9061195a565b915050610975565b50809250505090565b60008054906101000a900473ffffffffffffffffffffffffffffffffffffffff1681565b80600060018054905011610b09576040517f08c379a0000000000000000000000000000000000000000000000000000000008152600401610b0090611d48565b60405180910390fd5b60018080549050610b1a91906119a2565b811115610b5c576040517f08c379a0000000000000000000000000000000000000000000000000000000008152600401610b5390611dda565b60405180910390fd5b60011515610b6a8333610f68565b151514610bac576040517f08c379a0000000000000000000000000000000000000000000000000000000008152600401610ba390611f90565b60405180910390fd5b60005b60018381548110610bc357610bc2611790565b5b906000526020600020906003020160020180549050811015610cf35760018381548110610bf357610bf2611790565b5b90600052602060002090600302016002018181548110610c1657610c15611790565b5b9060005260206000200160009054906101000a900473ffffffffffffffffffffffffffffffffffffffff1673ffffffffffffffffffffffffffffffffffffffff163373ffffffffffffffffffffffffffffffffffffffff1603610ce057610ca160018481548110610c8a57610c89611790565b5b90600052602060002090600302016002018261105d565b7f8430f3edf8e599216e82e74036a3997b56dda6283ea97e28f330b76e914eef618333604051610cd2929190611fb0565b60405180910390a150610cf5565b8080610ceb9061195a565b915050610baf565b505b5050565b60606000805b600180549050811015610d8f57600060018281548110610d2257610d21611790565b5b90600052602060002090600302016002018054905060018381548110610d4b57610d4a611790565b5b906000526020600020906003020160010154610d6791906119a2565b1115610d7c578180610d789061195a565b9250505b8080610d879061195a565b915050610cff565b5060008167ffffffffffffffff811115610dac57610dab6119e1565b5b604051908082528060200260200182016040528015610de557816020015b610dd2611150565b815260200190600190039081610dca5790505b5090506000915060005b600180549050811015610f5f57600060018281548110610e1257610e11611790565b5b90600052602060002090600302016002018054905060018381548110610e3b57610e3a611790565b5b906000526020600020906003020160010154610e5791906119a2565b1115610f4c57604051806040016040528082815260200160018381548110610e8257610e81611790565b5b90600052602060002090600302016000018054610e9e906117ee565b80601f0160208091040260200160405190810160405280929190818152602001828054610eca906117ee565b8015610f175780601f10610eec57610100808354040283529160200191610f17565b820191906000526020600020905b815481529060010190602001808311610efa57829003601f168201915b5050505050815250828481518110610f3257610f31611790565b5b60200260200101819052508280610f489061195a565b9350505b8080610f579061195a565b915050610def565b50809250505090565b600080600090505b60018481548110610f8457610f83611790565b5b9060005260206000209060030201600201805490508110156110515760018481548110610fb457610fb3611790565b5b90600052602060002090600302016002018181548110610fd757610fd6611790565b5b9060005260206000200160009054906101000a900473ffffffffffffffffffffffffffffffffffffffff1673ffffffffffffffffffffffffffffffffffffffff168373ffffffffffffffffffffffffffffffffffffffff160361103e576001915050611057565b80806110499061195a565b915050610f70565b50600090505b92915050565b816001838054905061106f91906119a2565b815481106110805761107f611790565b5b9060005260206000200160009054906101000a900473ffffffffffffffffffffffffffffffffffffffff168282815481106110be576110bd611790565b5b9060005260206000200160006101000a81548173ffffffffffffffffffffffffffffffffffffffff021916908373ffffffffffffffffffffffffffffffffffffffff1602179055508180548061111757611116611fd9565b5b6001900381819060005260206000200160006101000a81549073ffffffffffffffffffffffffffffffffffffffff021916905590555050565b604051806040016040528060008152602001606081525090565b600080fd5b600080fd5b600080fd5b600080fd5b600080fd5b60008083601f84011261119957611198611174565b5b8235905067ffffffffffffffff8111156111b6576111b5611179565b5b6020830191508360018202830111156111d2576111d161117e565b5b9250929050565b6000819050919050565b6111ec816111d9565b81146111f757600080fd5b50565b600081359050611209816111e3565b92915050565b6000806000604084860312156112285761122761116a565b5b600084013567ffffffffffffffff8111156112465761124561116f565b5b61125286828701611183565b93509350506020611265868287016111fa565b9150509250925092565b6000602082840312156112855761128461116a565b5b6000611293848285016111fa565b91505092915050565b600081519050919050565b600082825260208201905092915050565b60005b838110156112d65780820151818401526020810190506112bb565b60008484015250505050565b6000601f19601f8301169050919050565b60006112fe8261129c565b61130881856112a7565b93506113188185602086016112b8565b611321816112e2565b840191505092915050565b611335816111d9565b82525050565b600081519050919050565b600082825260208201905092915050565b6000819050602082019050919050565b600073ffffffffffffffffffffffffffffffffffffffff82169050919050565b600061139282611367565b9050919050565b6113a281611387565b82525050565b60006113b48383611399565b60208301905092915050565b6000602082019050919050565b60006113d88261133b565b6113e28185611346565b93506113ed83611357565b8060005b8381101561141e57815161140588826113a8565b9750611410836113c0565b9250506001810190506113f1565b5085935050505092915050565b6000606082019050818103600083015261144581866112f3565b9050611454602083018561132c565b818103604083015261146681846113cd565b9050949350505050565b600081519050919050565b600082825260208201905092915050565b6000819050602082019050919050565b6114a5816111d9565b82525050565b600082825260208201905092915050565b60006114c78261129c565b6114d181856114ab565b93506114e18185602086016112b8565b6114ea816112e2565b840191505092915050565b600060408301600083015161150d600086018261149c565b506020830151848203602086015261152582826114bc565b9150508091505092915050565b600061153e83836114f5565b905092915050565b6000602082019050919050565b600061155e82611470565b611568818561147b565b93508360208202850161157a8561148c565b8060005b858110156115b657848403895281516115978582611532565b94506115a283611546565b925060208a0199505060018101905061157e565b50829750879550505050505092915050565b600060208201905081810360008301526115e28184611553565b905092915050565b6115f381611387565b82525050565b600060208201905061160e60008301846115ea565b92915050565b7f436f6e7472616374206e6f7420696e766f6b656420627920746865206f776e6560008201527f722e000000000000000000000000000000000000000000000000000000000000602082015250565b60006116706022836112a7565b915061167b82611614565b604082019050919050565b6000602082019050818103600083015261169f81611663565b9050919050565b7f416464206174206c65617374206f6e6520636f7079206f662074686520626f6f60008201527f6b2e000000000000000000000000000000000000000000000000000000000000602082015250565b60006117026022836112a7565b915061170d826116a6565b604082019050919050565b60006020820190508181036000830152611731816116f5565b9050919050565b600081905092915050565b82818337600083830152505050565b600061175e8385611738565b935061176b838584611743565b82840190509392505050565b6000611784828486611752565b91508190509392505050565b7f4e487b7100000000000000000000000000000000000000000000000000000000600052603260045260246000fd5b7f4e487b7100000000000000000000000000000000000000000000000000000000600052602260045260246000fd5b6000600282049050600182168061180657607f821691505b602082108103611819576118186117bf565b5b50919050565b60008190508160005260206000209050919050565b60008154611841816117ee565b61184b8186611738565b94506001821660008114611866576001811461187b576118ae565b60ff19831686528115158202860193506118ae565b6118848561181f565b60005b838110156118a657815481890152600182019150602081019050611887565b838801955050505b50505092915050565b60006118c38284611834565b915081905092915050565b7f4e487b7100000000000000000000000000000000000000000000000000000000600052601160045260246000fd5b6000611908826111d9565b9150611913836111d9565b925082820190508082111561192b5761192a6118ce565b5b92915050565b6000604082019050611946600083018561132c565b611953602083018461132c565b9392505050565b6000611965826111d9565b91507fffffffffffffffffffffffffffffffffffffffffffffffffffffffffffffffff8203611997576119966118ce565b5b600182019050919050565b60006119ad826111d9565b91506119b8836111d9565b92508282039050818111156119d0576119cf6118ce565b5b92915050565b600082905092915050565b7f4e487b7100000000000000000000000000000000000000000000000000000000600052604160045260246000fd5b60006020601f8301049050919050565b600082821b905092915050565b600060088302611a5d7fffffffffffffffffffffffffffffffffffffffffffffffffffffffffffffffff82611a20565b611a678683611a20565b95508019841693508086168417925050509392505050565b6000819050919050565b6000611aa4611a9f611a9a846111d9565b611a7f565b6111d9565b9050919050565b6000819050919050565b611abe83611a89565b611ad2611aca82611aab565b848454611a2d565b825550505050565b600090565b611ae7611ada565b611af2818484611ab5565b505050565b5b81811015611b1657611b0b600082611adf565b600181019050611af8565b5050565b601f821115611b5b57611b2c8161181f565b611b3584611a10565b81016020851015611b44578190505b611b58611b5085611a10565b830182611af7565b50505b505050565b600082821c905092915050565b6000611b7e60001984600802611b60565b1980831691505092915050565b6000611b978383611b6d565b9150826002028217905092915050565b611bb183836119d6565b67ffffffffffffffff811115611bca57611bc96119e1565b5b611bd482546117ee565b611bdf828285611b1a565b6000601f831160018114611c0e5760008415611bfc578287013590505b611c068582611b8b565b865550611c6e565b601f198416611c1c8661181f565b60005b82811015611c4457848901358255600182019150602085019450602081019050611c1f565b86831015611c615784890135611c5d601f891682611b6d565b8355505b6001600288020188555050505b50505050505050565b6000611c8383856112a7565b9350611c90838584611743565b611c99836112e2565b840190509392505050565b6000604082019050611cb9600083018661132c565b8181036020830152611ccc818486611c77565b9050949350505050565b7f546865206c69627261727920686173206e6f20626f6f6b732063757272656e7460008201527f6c792e0000000000000000000000000000000000000000000000000000000000602082015250565b6000611d326023836112a7565b9150611d3d82611cd6565b604082019050919050565b60006020820190508181036000830152611d6181611d25565b9050919050565b7f426f6f6b2077697468207468697320494420646f6573206e6f7420657869737460008201527f20696e2074686520636f6c6c656374696f6e2e00000000000000000000000000602082015250565b6000611dc46033836112a7565b9150611dcf82611d68565b604082019050919050565b60006020820190508181036000830152611df381611db7565b9050919050565b7f426f6f6b206d7573742062652072657475726e6564206265666f72652069742060008201527f63616e20626520626f72726f7765642e00000000000000000000000000000000602082015250565b6000611e566030836112a7565b9150611e6182611dfa565b604082019050919050565b60006020820190508181036000830152611e8581611e49565b9050919050565b7f546865726520617265206e6f20636f70696573206f662074686520626f6f6b2060008201527f617661696c61626c652e00000000000000000000000000000000000000000000602082015250565b6000611ee8602a836112a7565b9150611ef382611e8c565b604082019050919050565b60006020820190508181036000830152611f1781611edb565b9050919050565b7f596f7520646f206e6f742068617665207468697320626f6f6b206f6e206c6f6160008201527f6e2e000000000000000000000000000000000000000000000000000000000000602082015250565b6000611f7a6022836112a7565b9150611f8582611f1e565b604082019050919050565b60006020820190508181036000830152611fa981611f6d565b9050919050565b6000604082019050611fc5600083018561132c565b611fd260208301846115ea565b9392505050565b7f4e487b7100000000000000000000000000000000000000000000000000000000600052603160045260246000fdfea2646970667358221220bc6355416c45691518364b6bc5c004dbd9d1ee26abb0d5b19af6f038bd7aa28c64736f6c63430008140033",
  "linkReferences": {},
  "deployedLinkReferences": {}
}